:020000020000FC
:0200000045C0F9
:0800040067D018957BD0189518
:0200780068D04E
:10008C000FEF0DBF00E10EBF0FEF07BB00E008BB89
:10009C0008E001BB03E002BB02E000939B0003E01D
:1000AC000093980000E4009399000EE000939D00EB
:1000BC0008E900939A000AE000936A0003E009BF84
:1000CC00789400E608BBFFCF0F931F930FB70F93E5
:1000DC0000E008BB14E624D000E208BB14E620D0F4
:1000EC0000E608BB0F910FBF1F910F91F8940FEF13
:1000FC0008BF08950F931F930FB70F9300E008BB31
:10010C0014E60ED000E408BB14E60AD000E608BBE7
:10011C000F910FBF1F910F91F8940FEF08BF089527
:10012C001F932F933F9330EE2DEE2A95F1F73A95CE
:10013C00D9F71A95C1F73F912F911F9108954091CE
:10014C009C000FEF08BB189505E5401799F400EBE0
:10015C00401789F000E84017A1F000EA4017B9F009
:10016C0000E94017D1F008EC4017E9F008EF401710
:10017C0001F11895189500E608BBF8940FEF08BF2D
:10018C00189500E008BBF8940FEF08BF189500E431
:10019C0008BBF8940FEF08BF189500E208BBF89461
:1001AC000FEF08BF189500E908BBF8940FEF08BFD4
:0A01BC001895F8940FEF08BF18958E
:00000001FF
