:020000020000FC
:0200000045C0F9
:040080005DD01895A2
:10008C000FEF0DBF00E10EBF0FEF07BB00E008BB89
:10009C0008E001BB03EF02BB02E000939B000EE300
:1000AC0000939D0008E400939A0003E000939800ED
:1000BC0000E400939900789400B30F3701F10F3BE3
:1000CC0019F10F3D31F10F3EA9F00D3F39F10E3F03
:1000DC0051F1F2CFF0E0EBE9049105FFFBCF0EE11B
:1000EC0000939C00F0E0EBE9049105FFFBCF4093FB
:1000FC009C00089500EB08BB40EBECDFDDCF00E883
:10010C0008BB40E8E7DFD8CF00E908BB40E9E2DFF5
:10011C00D3CF00EA08BB40EADDDFCECF08EC08BB4A
:10012C0048ECD8DFC9CF08EF08BB48EFD3DFC4CF0A
:04013C0048BB08951F
:00000001FF
