:020000020000FC
:0200000045C0F9
:08000400A2D01895B5D01895A3
:0400780034D01895D3
:10008C0000E10EBF0FEF0DBF08E001BB03E002BBA8
:10009C0000EF07BB00E008BB02E000939B0003E00D
:1000AC000093980000E40093990008E900939A00EB
:1000BC000EE000939D0003E009BF0AE000936A0084
:1000CC0000271127222733278827772738EC38BBBE
:1000DC00789438BBFECF10919C0017FD05C01A32E6
:1000EC0051F01535D9F02AC0110F103F31F020FD19
:1000FC00312F222723C0239521C02130D1F715E5BC
:10010C0000919B0005FFFBCF10939C0000919B007E
:10011C0007FFFCCF80919C00222710C07395733091
:10012C0051F0832F30EF38BB40E033D032D044E66F
:10013C0030D0382F03C030EF38BBFDCF08950F936C
:10014C004F930FB70F933F9300E808BB44E621D0C1
:10015C0000E908BB44E61DD000EB08BB3F910F91B2
:10016C000FBF4F910F9108950F934F930FB70F93AC
:10017C003F9300E808BB44E60CD000EA08BB44E619
:10018C0008D000EB08BB3F910F910FBF4F910F911F
:10019C0008954F935F936F9360EE5DEE5A95F1F770
:1001AC006A95D9F74A95C1F76F915F914F91089570
:00000001FF
