:020000020000FC
:0200000045C0F9
:0800040069D018957DD0189514
:040078006AD018959D
:10008C000FEF0DBF00E10EBF0FEF07BB00E008BB89
:10009C0050E060E008E001BB03E002BB02E000932B
:1000AC009B0003E00093980000E4009399000EE39A
:1000BC0000939D0008E900939A000AE000936A00FF
:1000CC0003E009BF789400E608BBFFCF0F931F93A2
:1000DC000FB70F9300E008BB14E624D000E208BB76
:1000EC0014E620D000E608BB0F910FBF1F910F91B3
:1000FC00F8940FEF08BF08950F931F930FB70F934A
:10010C0000E008BB14E60ED000E408BB14E60AD0ED
:10011C0000E608BB0F910FBF1F910F91F8940FEFE2
:10012C0008BF08951F932F933F9330EE2DEE2A9521
:10013C00F1F73A95D9F71A95C1F73F912F911F9185
:10014C00089540919C00453531F05F3FA9F0403255
:10015C0001F55FEF089578B305E508BB00E0E2DF39
:10016C0003950530E1F76395633029F000E00093C7
:10017C009C0078BB0EC0FFCF403B71F0403891F033
:10018C00403AB1F04039D1F0483CF1F0483F11F120
:10019C0000C050E00C943D0000E608BBF8940FEF53
:1001AC0008BFF7CF00E008BBF8940FEF08BFF1CF02
:1001BC0000E408BBF8940FEF08BFEBCF00E208BBDC
:1001CC00F8940FEF08BFE5CF00E908BBF8940FEFE8
:1001DC0008BFDFCFF0E0EBE9049105FFFBCF05E5AD
:1001EC0000939C00F0E0EBE9049105FFFBCFF89441
:0601FC000FEF08BFCECF9B
:00000001FF
